:02000002B0004C
:1040000000400B00BE530B00000006000C00050230
:08401000040139180000000052
:04401800AC500B009D
:10401C00034613F8012B002AFBD1181A01387047FC
:10402C0009480A49884208B505D0094A824202D09B
:10403C00121A00F08BFF0748074A0021121A00F0F1
:10404C0093FF014808BD00BF34E6032020530B004A
:10405C00A4E60320A4E60320FCE7032070B5074E7A
:10406C00074C00F051FEA41BA4080025AC4200D163
:10407C0070BD56F8043B98470135F7E7D4520B0056
:10408C00FC520B0000F014B808B500F019F8BDE8AC
:10409C00084000F0F1BD00F00FBA00F015BA00783E
:1040AC00B0FA80F04009704701230370704700009C
:1040BC00024B0121188800F097BE00BF34E60320A4
:1040CC0038B5204C03250121208800F09EFEC82025
:1040DC0000F0ACFD2088002100F097FEC82000F015
:1040EC00A5FD013DEFD1C82000F0A0FD0325012165
:1040FC00208800F08AFE4FF4167000F097FD20889F
:10410C00002100F082FEC82000F090FD013DEED1B0
:10411C00C82000F08BFD03250121208800F075FEDE
:10412C00C82000F083FD2088002100F06EFEC8201E
:10413C0000F07CFD013DEFD1BDE838404FF4FA6052
:10414C0000F074BD34E6032008B50120002100F016
:10415C0097F9064B0022C3E90022A2F580329A603F
:10416C00BDE80840022000F07BB900BFA4E60320A4
:10417C0008B5024B1B685B6C019308BD4802030039
:10418C0008B5024B1B685B68019308BD180203005D
:10419C0008B5024B1B685B69019308BD180203004C
:1041AC0008B5024B1B689B68019308BD2C020300E9
:1041BC0008B5024B1B68DB68019308BD2C02030099
:1041CC0008B5024B1B681B69019308BD2C02030048
:1041DC0008B5024B1B681B6A019308BD280203003B
:1041EC0008B5024B1B685B6A019308BD28020300EB
:1041FC0008B5024B1B689B6A019308BD280203009B
:10420C0008B5024B1B68DB6A019308BD280203004A
:10421C0008B5024B1B681B6B019308BD28020300F9
:10422C0008B5024B1B685B6B019308BD28020300A9
:10423C0008B5024B1B681B6C019308BD28020300D8
:10424C0008B5024B1B685B69019308BD640203004F
:10425C0008B5024B1B689B68019308BD68020300FC
:10426C0008B5024B1B68DB68019308BD68020300AC
:10427C0008B5024B1B68DB69019308BD30020300D3
:10428C0008B5024B1B681B6A019308BD3002030082
:10429C0008B5024B1B68DB68019308BD3C020300A8
:1042AC0008B5024B1B681B69019308BD3C02030057
:1042BC0008B5024B1B685B69019308BD3C02030007
:1042CC0008B5024B1B689B69019308BD3C020300B7
:1042DC0008B5024B1B68DB69019308BD3C02030067
:1042EC0008B5024B1B681B6A019308BD3C02030016
:1042FC0008B5024B1B689B6A019308BD3C02030086
:10430C0008B5024B1B681B6C019308BD3C020300F3
:10431C0008B5024B1B681B68019308BD4C020300D7
:10432C0008B5024B1B681B69019308BD4C020300C6
:10433C0008B5024B1B685B69019308BD4C02030076
:10434C0008B5024B1B689B69019308BD4C02030026
:10435C0008B5024B1B68DB69019308BD4C020300D6
:10436C0008B5024B1B681B6A019308BD4C02030085
:10437C0008B5024B1B68DB6B019308BD44020300BC
:10438C0008B5024B1B685B68019308BD4002030033
:10439C0008B5024B1B689B68019308BD40020300E3
:1043AC0008B5024B1B68DB68019308BD4002030093
:1043BC0008B5024B1B681B69019308BD4002030042
:1043CC0008B5024B1B685B69019308BD40020300F2
:1043DC0008B5024B1B689B69019308BD40020300A2
:1043EC0008B5024B1B68DB69019308BD4002030052
:1043FC0008B5024B1B681B6A019308BD4002030001
:10440C0008B5024B1B681B6B019308BD40020300EF
:10441C0008B5024B1B685B6B019308BD400203009F
:10442C0008B5024B1B681B6C019308BD40020300CE
:10443C0008B5024B1B685B6C019308BD400203007E
:10444C0008B5024B1B685B6D019308BD400203006D
:10445C0008B5024B1B689B6D019308BD400203001D
:10446C0008B5024B1B685B68019308BD2002030072
:10447C0008B5024B1B685B69019308BD2002030061
:10448C0008B5024B1B68DB6A019308BD20020300D0
:10449C0008B5034B1B68D3F88830019308BD0000A6
:1044AC002002030008B5034B1B68D3F8943001932A
:1044BC0008BD00002002030008B5024B1B681B68F6
:1044CC00019308BD1C02030008B5024B1B685B6816
:1044DC00019308BD1C02030008B5024B1B681B6C42
:1044EC00019308BD1C02030008B5024B1B685B6CF2
:1044FC00019308BD1C020300024800230360FFF770
:10450C0037BE00BFB0E60320002240681146FFF71B
:10451C006FBF002240681146FFF77ABF4068002247
:10452C00FFF76EBF4068002281F00101FFF758BF12
:10453C00002340681A461946FFF74ABF002340681B
:10454C001A461946FFF73CBF002240681146FFF798
:10455C002FBF002240681146FFF71ABF40680022A7
:10456C000221FFF71DBF002340681A46FFF708BF62
:10457C00024B03225A60024A1A607047B4E60320C9
:10458C00C8500B007047F8B5064615460C468F18F8
:10459C00BC4206D0336814F8011B9B683046984720
:1045AC00F6E72846F8BD007C0022FFF711BE007C20
:1045BC000021FFF715BE007C0021FFF719BE007C1F
:1045CC000021FFF71DBE007C0021FFF721BE10B5B6
:1045DC0014210446FFF761FD204610BD38B5044692
:1045EC0015464FF47A730022C4E90123094B217458
:1045FC00084623602946FFF71BFEBF3008D16B69C4
:10460C00DB0705D56868FFF75FFFE868FFF75CFF1D
:10461C00204638BD0C510B00054BFF210022C3E98D
:10462C00001201206421C3E902011A61704700BF26
:10463C00BCE60320704710B518210446FFF72DFD8A
:10464C00204610BDF0B5037D062B8DB00E4600F153
:10465C0004074FF0000412D000F1080515F8011DF5
:10466C000A22304600F05DF9AF42044419D0002C08
:10467C00F4D02E21304600F051F90444EEE72F23FC
:10468C006A4639460A208DF80040FFF7D9FD684686
:10469C00FFF7BEFC33680246DB6869463046984734
:1046AC00044620460DB0F0BD10B5054B0446112252
:1046BC0040F8043B002100F057FC204610BD00BF21
:1046CC0038510B000346074A10B543F8042B01F18F
:1046DC00100251F8044B43F8044B9142F9D10A787B
:1046EC001A7010BD38510B0010B59DF8084044EA03
:1046FC00032343EA024242EA016104234160037549
:10470C0010BD000007B5064B0360CB7800938B7887
:10471C004A780978FFF7E8FF03B05DF804FB00BFA7
:10472C0038510B00014B024A1A607047D0E6032047
:10473C0044510B00002340681A46FFF721BE406825
:10474C0000220221FFF72CBE002240681146FFF721
:10475C001FBE002240681146FFF72ABE00234068A6
:10476C001A461946FFF72CBE002340681A46194614
:10477C00FFF72EBE40680021FFF752BE40680021B3
:10478C00FFF756BE4068002281F00101FFF728BEFA
:10479C0040680022FFF734BE002240681146FFF744
:1047AC0037BE002240681146FFF722BE4068002148
:1047BC00FFF74EBE2DE9F04395B014460D46074663
:1047CC00FFF772FF00211C220DA8009100F0CCFB1A
:1047DC0040230C9320466B460CAA0021FFF740FDAA
:1047EC00044600284BD1024601216868FFF7E0FD22
:1047FC000221804622466868FFF7DAFD009E81465A
:10480C002146002E3BD0002939D17368022B03D0EE
:10481C000A2B11D0F669F4E7B8F1000FFAD07169E0
:10482C0006A8043107ADFFF76DFF0FCD3C1D0FC47B
:10483C002B6823704146EDE7B9F1000FEAD074699B
:10484C00102201A800F090FB06238DF8143001AD66
:10485C0004F108031834186859682A4603C208334F
:10486C00A3421546F7D101A906A807ADFFF72AFF09
:10487C000FCD3C1D0FC42B6823704946CAE7009826
:10488C00FFF7E6FC384615B0BDE8F0830338022884
:10489C009ABF024B53F820000148704748510B0057
:1048AC00D4E6032008B500224068FFF7C9FDBDE837
:1048BC000840FFF7EBBF0000024B034A1A600022CE
:1048CC005A607047D4E603205C510B00F8B50646DD
:1048DC000D468F180024BD420CD0336815F8011B0F
:1048EC009B6830469847031E01DB1C44F3E7002C01
:1048FC0008BF1C462046F8BD13B50446084659B1FE
:10490C000191FFF785FB23680199DB68024620467D
:10491C0002B0BDE81040184702B010BD03689B6898
:10492C00184730B58BB00023012A8DF8243098BF7E
:10493C000A2209AC0D46B1FBF2F101FB125303F054
:10494C00FF03092B94BF30333733DBB2AA4204F890
:10495C00013DEFD92146FFF7CFFF0BB030BD000072
:10496C00014B00229A607047DCE6032010B5044628
:10497C0008462170FFF77CFC00236360204610BDC5
:10498C0010B50446FFF704FCE060236820465B6921
:10499C009847002808DAFFF7FBFBE368C01AA36806
:1049AC009842F2D34FF0FF3010BD2DE9F04107468D
:1049BC000C468E180D46B542A5EB040807D03846B8
:1049CC00FFF7DEFF031E02DB05F8013BF3E7404671
:1049DC00BDE8F081054B02221A60054B054A9A602E
:1049EC000020C3E90000FFF73BBD00BFF8E6032041
:1049FC00ECE603200000FFFF024B1A68024B1A6022
:104A0C00704700BF38E60320FCE603207047417472
:104A1C00704708B5007CFFF76BFC20EAE07008BD1E
:104A2C0008B5007CFFF73CFC20EAE07008BD08B537
:104A3C00007CFFF745FC40EAE07008BD08B5007C3F
:104A4C00FFF736FC40EAE07008BD007CFFF740BC85
:104A5C0037B5457C04462DB1207C03B0BDE8304011
:104A6C00FFF716BC007C0191FFF742FC002801996E
:104A7C00F2DC284603B030BD10B514210446FFF714
:104A8C000CFB204610BD000010B54FF47A730446A1
:104A9C00084611460022C4E90123044B236001237C
:104AAC0020746374FFF72CFC204610BDBC510B0026
:104ABC00417470477047704708B50021007CFFF7C0
:104ACC003FFC40EAE07008BD08B50121007CFFF70F
:104ADC0037FC40EAE07008BD08B5007CFFF728FC05
:104AEC0020EAE07008BD08B5007CFFF719FC20EA4D
:104AFC00E07008BD13B50446007C0191FFF718FC6B
:104B0C000028019901DC607C20B1207CFFF720FC9F
:104B1C0020EAE07002B010BD007CFFF721BC10B59C
:104B2C0014210446FFF7B9FA204610BD10B54FF416
:104B3C007A73044608460021C4E90113044B236030
:104B4C000123207463741146FFF7E2FB204610BD6D
:104B5C00F0510B0010B514220446002100F004FAA9
:104B6C00204610BD10B50F4C88B003A8FFF7F2FF1C
:104B7C002178BFF35B8F11F001010FD12046019119
:104B8C00FFF78DFA019948B103AA0748FFF7CEFF4A
:104B9C002046FFF789FA054800F0D2F9024808B020
:104BAC0010BD00BF00E7032004E70320C14A0B003F
:104BBC00002240681146FFF7FBBB002240681146FB
:104BCC00FFF716BC002240681146FFF721BC406875
:104BDC000022FFF715BC4068002281F00101FFF7AD
:104BEC00FFBB002340681A461946FFF7F1BB0023B0
:104BFC0040681A461946FFF7E3BB0022406811468D
:104C0C00FFF7C6BB406800220221FFF7C9BB002397
:104C1C0040681A46FFF7B4BB024B04225A60024AA2
:104C2C001A60704718E7032024520B000021FFF78D
:104C3C001FBC0000014B1860704700BF3CE603200E
:104C4C0008B50B4B43B1FFF78DFF03681B69984701
:104C5C00002801DDAFF30080064B43B100F04AF9A8
:104C6C0003681B699847002801DDAFF3008008BD7D
:104C7C00000000000000000008B5FFF7E1FFFFF79F
:104C8C0087FA014B186008BD34E703200548064A33
:104C9C00064908B5121A00F059F9054B054A1A6075
:104CAC0008BD00BF00F4032004F4032090530B0054
:104CBC0000F403201E1C279A07B5002300931A4604
:104CCC006FF07701FFF7EEFB03B05DF804FB00001B
:104CDC0007B543880A2B08D0502B0BD1094B1B6806
:104CEC004BB103B05DF804EB1847FFF7E5FF03B0D9
:104CFC005DF804FB002300931A466FF07701FFF771
:104D0C00D1FBF4E724E7032010B512480021FFF78C
:104D1C00EBFB114B1A68114B9A42114B0CBF012241
:104D2C0000221A7001D0FFF7B1FFFFF729FA0446F1
:104D3C0000F022F90B4B13B12046AFF30080002199
:104D4C000848FFF715FBBDE8104007480021FFF7A6
:104D5C009FBB00BF414C0B0000F403201E1C279A84
:104D6C0020E7032000000000DD4C0B00232813B5C6
:104D7C0002D9002002B010BDA0F10B03022B1AD8EF
:104D8C00174C2178BFF35B8F11F001010BD120463A
:104D9C000191FFF784F9019928B11248FFF7E6FD5C
:104DAC002046FFF781F90F4B1878FFF769FA0028B6
:104DBC00DFD10120DEE7012809D800F05BF80021E3
:104DCC00007CFFF72DFA80F00100C0B2D2E7093861
:104DDC000128EED800F08EF8007CFFF781FAF2E79C
:104DEC0028E703202CE70320232838B504460D467A
:104DFC000AD8FF2908D0FFF7B9FF28B12946204669
:104E0C00BDE83840FFF7CCB938BD38B504460D467F
:104E1C00FFF7CEF9FF2810D0062804D84D2323FA2B
:104E2C0000F0C30709D42046FFF7A0FF28B129469C
:104E3C002046BDE83840FFF7C3B938BD70470000C5
:104E4C0038B50A4B0360012304464361084920200E
:104E5C0000F074F8202560600549A560284600F034
:104E6C006DF8C4E90305204638BD00BF18000100E9
:104E7C0060520B0030B50E4D2978BFF35B8F11F0EB
:104E8C00010487B011D12846FFF709F968B16846CB
:104E9C00FFF7D6FF6A4621460648FFF79FFB2846D8
:104EAC00FFF702F9044800F04BF8024807B030BD98
:104EBC0038E703203CE70320494E0B007047000005
:104ECC0038B5044614252A46002100F04DF82580FB
:104EDC004025074925812846258200F02FF80449F2
:104EEC006060284600F02AF8E060204638BD00BF1C
:104EFC0060520B0030B50E4D2978BFF35B8F11F06B
:104F0C00010487B011D12846FFF7C9F868B101A890
:104F1C00FFF7D6FF01AA21460648FFF7B5FD284644
:104F2C00FFF7C2F8044800F00BF8024807B030BD98
:104F3C0050E7032054E70320C94E0B00FFF7ABB832
:104F4C00002301461A46184600F044B80A44914220
:104F5C0000F1FF3300D1704710B511F8014B03F885
:104F6C00014F9142F9D110BD02440346934200D146
:104F7C00704703F8011BF9E738B5104B1D68AB6B94
:104F8C000446B3B91820FFF797FA0246A86320B974
:104F9C000B4B0C484221FFF79FFA0B490B4BC0E916
:104FAC0000130B4B83600B23838100210120C2E98A
:104FBC000401AB6B00221C615A6138BD3CE6032036
:104FCC0061520B0078520B000E33CDAB34126DE6F0
:104FDC00ECDE05002DE9F843DFF8B8800646D8F87A
:104FEC0000001F460D46914600F056F8254B1C68F4
:104FFC0034B9254C1C60254B13B11B68C4F88830A0
:10500C0063681F2B07DDD8F8000000F047F84FF05D
:10501C00FF30BDE8F8834EB3D4F8880088B91C4B38
:10502C0023B9D8F8000000F038F8F0E74FF484709A
:10503C00FFF742FA0028F4D00023C0E94033C4F84B
:10504C008800636840F8239001229A4000EB8301AA
:10505C00D0F800311343C0F80031022EC1F8807033
:10506C0002BFD0F804311343C0F804316368D8F898
:10507C0000005A1C0233626044F8235000F00EF812
:10508C000020C6E7F4E7032068E7032000000000D7
:10509C00C5440B00A0E60320704770477047000022
:1050AC002D400B0069400B0091400B0095400B000C
:1050BC0000000000000000000000000073450B0021
:1050CC0069450B005F450B0055450B0049450B002E
:1050DC003D450B0081470B0089470B0031450B0008
:1050EC0029450B001F450B0015450B00B1480B0063
:1050FC00B9470B00C1470B00000000000000000086
:10510C0091450B00DB450B00B3450B0093450B00A1
:10511C00BB450B00C3450B00CB450B00D3450B0027
:10512C00B7490B00000000000000000051460B00C6
:10513C0041460B0043460B0061707000B4E603203F
:10514C0018E70320D4E60320000000000000000054
:10515C0041470B004B470B0055470B005F470B00BB
:10516C0069470B0075470B0081470B0089470B0003
:10517C0091470B009D470B00A5470B00AF470B0059
:10518C00B1480B00B9470B00C1470B0025592D2521
:10519C006D2D25645425483A254D3A2553257A0022
:1051AC0061736374696D650000000000000000000D
:1051BC00194A0B00854A0B005D4A0B00D9480B00BD
:1051CC002D4A0B00494A0B003B4A0B00574A0B0077
:1051DC00B7490B001B4A0B001F4A0B0000000000D4
:1051EC0000000000C34A0B002B4B0B00014B0B00C3
:1051FC00D9480B00F34A0B00C54A0B00D54A0B00EB
:10520C00254B0B00B7490B00E54A0B00BD4A0B00C0
:10521C0000000000000000001B4C0B00114C0B00A8
:10522C00074C0B00BD4B0B00FB4B0B00EF4B0B006B
:10523C0081470B0089470B00E34B0B00DB4B0B004A
:10524C00D14B0B00C74B0B00B1480B00B9470B00FF
:10525C00C1470B00005245454E54206D616C6C6F7C
:10526C006320737563636565646564002F746D708A
:10527C002F6A656E6B696E732D4743432D31302D4C
:10528C00706970656C696E652D34385F3230323000
:10529C00313132345F313630363138303633392FA4
:1052AC007372632F6E65776C69622F6E65776C69AC
:1052BC00622F6C6962632F7374646C69622F726104
:1052CC006E642E630000000055410B0005450B0079
:1052DC007D450B0025460B0031470B00C5480B00E4
:1052EC006D490B00E1490B00054A0B00254C0B00E6
:1052FC00040000001400000003000000474E55009D
:10530C008794BB6849C89E0FA10DB8EEC5DEE19825
:04531C005D6BE91BC1
:1053200007000000AC510B0040E603200000000025
:10533000000000000000000000000000000000006D
:10534000000000000000000000000000000000005D
:10535000000000000000000000000000000000004D
:10536000000000000000000000000000000000003D
:10537000000000000000000000000000000000002D
:10538000000000000000000000000000F8E703201B
:045390000000000019
:10539A0000000102030405060708090A0B0C0D0E9A
:1053AA000F101112131415161718191A1B1C1D1E8B
:0453BA001F20280088
:0453BE0078563412D7
:04000003B000401CED
:00000001FF
